:020000040001F9
:10B00000702F0020D5B00100EFB00100F1B00100B9
:10B010000000000000000000000000000000000030
:10B02000000000000000000000000000F3B001007C
:10B030000000000000000000F5B00100F7B00100C2
:10B04000DDB30100F9B0010025B50100F9B0010040
:10B05000F9B0010000000000B5B10100F9B0010035
:10B06000F9B00100F9B00100F9B00100F9B0010038
:10B07000F9B00100F9B00100F9B00100F9B0010028
:10B08000F9B0010031B40100F9B00100F9B00100DC
:10B0900051B40100F9B0010059B40100F9B0010048
:10B0A000F9B00100F9B0010000000000000000004C
:10B0B0000000000000000000000000000000000090
:10B0C0000348854600F064F8004800474DD0010071
:10B0D000702F00200321094802680A4302600848D3
:10B0E00002680A4302600748804707480047FEE7B6
:10B0F000FEE7FEE7FEE7FEE7FEE70000240500406E
:10B100005405004085B40100C1B0010030B50B46C4
:10B11000014600202022012409E00D46D5409D4231
:10B1200005D31D469540491B2546954040191546B7
:10B13000521E002DF1DC30BD03460B439B0703D0AC
:10B1400009E008C9121F08C0042AFAD203E00B78EC
:10B150000370401C491C521EF9D27047D2B201E064
:10B160000270401C491EFBD270470022F6E710B562
:10B1700013460A4604461946FFF7F0FF204610BD65
:10B18000421C0178401C0029FBD1801A7047000046
:10B19000064C0125064E05E0E36807CC2B430C3C2A
:10B1A00098471034B442F7D3FFF78EFF1CE7010035
:10B1B0003CE70100F0B50024FF268BB001360125E5
:10B1C00027460694304602F0DBFB002807D054489F
:10B1D0004068284203D0304602F0CAFB2C43361D9B
:10B1E0006D007F1CB6B2042FECD3FF257D352846B9
:10B1F00002F0C6FB002809D0284602F0B9FB680718
:10B20000044306AA0121002002F09EFB454D2007C1
:10B2100014D00127002627420CD04348B200111851
:10B2200008690969C004C00E8903AA58890F002A59
:10B2300000D090477F00761C042EECD3002C6DDAF2
:10B2400000200890401E63E0281940300778B906B6
:10B25000890E009100214156491C49D009A9009846
:10B2600002F033F8002843D0B8090190009801F0AB
:10B27000B7FB80002F580198002F02D0032802D07E
:10B280000DE0032834D1009808ABC208410794466A
:10B29000985C490F01228A401043624698540098F6
:10B2A000052109078000401807210902401800689D
:10B2B00006A98003800F0290009802F006F800288B
:10B2C000029802D0022802D012E0032810D101987F
:10B2D000032808D1029802281ED00221009802F00B
:10B2E00015FB761CF6B2002F02D001990098B847E2
:10B2F000641C042CA8D3002E10D06A460121002023
:10B3000002F022FB06990098884207D00690089820
:10B3100000263446099097E70321DFE70BB0F0BD24
:10B3200000630040442600200065004030B585B031
:10B330000546142212A16846FFF7FEFE154C302088
:10B340002070782060702846A41CFFF719FFC2B255
:10B35000002069460CE02B78401C1B09CB5C237055
:10B360002B78C0B21B071B0FCB5C6370A41C6D1C39
:10B370009042F0D300202070064805B030BD000098
:10B38000303132333435363738394142434445461B
:10B3900000000000A82300208307FF22DB0E9A4054
:10B3A0008907090E994000280BDA0007000F0838BA
:10B3B000830808489B001818C36993430B43C36173
:10B3C0007047830804489B001B1818689043084383
:10B3D0001860704700ED00E000E400E0F8B5FF20E1
:10B3E000013001F07AFF002401250E4E0E4F002897
:10B3F00007D00E4804600120B0607D70002001F08D
:10B40000F7FAFF20053001F068FF002808D0074850
:10B41000001D04600220B060BD70012001F0E8FA58
:10B42000F8BD00000003004030260020000100406D
:10B4300010B506490020086048608860C86003496C
:10B4400040390860486002F039FE10BD40110140EB
:10B4500010B502F0A5FD10BD10B5084840680028E1
:10B4600008D08047002804D0FF21054AAC3100F005
:10B4700057FA10BD01F0B2FC10BD0000A020002062
:10B48000C4E6010010B501F0FDFC002805D01F49FD
:10B490001D484860C8131E4988611E48018CC9B206
:10B4A00001290BD1828C120708D1028D1206120FCE
:10B4B000042A03D1828D1206120F0AD0012921D14C
:10B4C000818C09071ED1018D0906090F0A2904D0B4
:10B4D00007E0114A01219160F5E7828D1206120FF3
:10B4E00005D00D290ED1808D0006000F0AD10B4822
:10B4F0000168012904D00A49016001680129FCD1D1
:10B50000C021416110BD0000DFFF07C00005004001
:10B51000006C0040C00F00F00006004000EC064048
:10B520007593000010B50249024802F01BFF10BDE0
:10B530008C2600200020004010B5024A024900F08D
:10B540002FF810BD93CC01009C20002030B474462D
:10B55000641E2578641CAB4200D21D46635D5B000F
:10B56000E31830BC184702E008C8121F08C1002ABF
:10B57000FAD170477047002001E001C1121F002A74
:10B58000FBD17047202804DA0121814003480142A1
:10B5900001D001207047002070470000FC06FFBC6E
:10B5A000F8B516460F460446002503E03946B04775
:10B5B000641C6D1C20780028F8D12846F8BDF7B52A
:10B5C00084B0064600251788158020300290407B05
:10B5D0001446002806D03A462146059800F0FEFDA4
:10B5E000050009D1B078002823D005988646208828
:10B5F000001DB84202D90C2007B0F0BD684679DFC3
:10B600000028F9D12188032072465054208819213E
:10B61000401C80B22080115420887146401C80B2AA
:10B62000208041186846008802F030FF21884018C9
:10B630002080F078002817D0218803230A46F3568B
:10B64000C91C0598B942D6D802218154218801220B
:10B65000491C89B2218042542188491C89B2218029
:10B6600043542088401C20807068002817D021880F
:10B670000023C3560A46C91C0598B942BBD802210B
:10B68000815421880A22491C89B221804254218890
:10B69000491C89B2218043542088401C2080308975
:10B6A00000280AD000943046019706220221083073
:10B6B000059B02F039FF05009ED1308A00280AD090
:10B6C000009430460197072203211030059B02F0B9
:10B6D0002BFF050090D1308B00280AD00094304613
:10B6E0000197152214211830059B02F01DFF05005B
:10B6F00082D1306A002806D03B462246059901F0E7
:10B70000DFF90500D8D1706A002806D03B462246F2
:10B71000059901F057FD0500CED10298007B002865
:10B7200007D03B4622463046059902F017FB05003C
:10B73000C2D13078002807D03B46224630460599D2
:10B7400001F074FD0500B7D1284655E7174A0021DE
:10B75000535C002B01D0012203E0491C0629F7D3DA
:10B7600000221349012806D002280BD0032810D04C
:10B77000042818D112E04878002803D0002A01D00C
:10B78000012070478878002803D0002A01D00220C9
:10B790007047C878002801D0032070470879002836
:10B7A00001D00420704700207047000021200020B5
:10B7B0004824002010B501220221002000F092FF51
:10B7C000002801D0072812D107220221012000F011
:10B7D00089FF002801D0072809D100210A22084644
:10B7E00000F080FF002801D0072800D1002010BD04
:10B7F00010B5B0B014221A492AA8FFF79DFC1949C8
:10B8000020A88183112101842AA829903C2101A824
:10B81000FFF7ABFC02216846017100248471062108
:10B82000C1713C2110A8FFF7A0FC27A81990202186
:10B830001FA8FFF79AFC012118A8C17740200094A7
:10B8400023902494084B1FAA10A901A800F0D8FA4D
:10B85000002803D0054A064900F062F830B010BD58
:10B860003CE6010011220000E1D9010090D1010065
:10B870006502000010B5022000F0DAFD10BD0000E6
:10B8800070B50024064D06E06968E000085C0121FF
:10B8900001F0B8FD641C28788442F5D3002070BD07
:10B8A0004C200020F8B515460C460646052A01D264
:10B8B0000720F8BD01F07EFE002803D101F04CFE08
:10B8C0000028F6D1104900204E600C70C8608D60D1
:10B8D00008610E4D0DE0E0006968801900918178E3
:10B8E0006A46517000780A4A694601F0D7FD00287F
:10B8F000DFD12046641EE4B20028ECD1054A0021C5
:10B90000024800F077F8F8BD4C2000209CE60100CA
:10B910008DCD0100CDCB010010B500F00FF810BDAA
:10B920000EB56B461980019202906A4600210248CA
:10B93000FFF7F2FF0EBD00000140000018B5012422
:10B940006B461C701B78144B186059609A60134941
:10B95000401807D001280FD1DA60D86800889861B4
:10B96000D86807E01A61186980685861186900880A
:10B97000986118694068D861186858689868D868EC
:10B98000186958699869D86972B6684600780028BD
:10B99000FBD162B618BD0000C8260020FFBFFFFF24
:10B9A00010B58268C368934203D001F05FF90020AC
:10B9B00010BD052010BD002906D0002A02D0531E5C
:10B9C000134203D0092070470E2070470160838026
:10B9D00000218160C1600846704710B58268C36865
:10B9E0009A1A83889A4203D801F04AF9002010BDC0
:10B9F000042010BD094B5B68002B07D0002A07D03C
:10BA0000002805D00068037C002B03D00820704775
:10BA10000720704741744261002070477020002069
:10BA2000FFB507469007002581B01E461446002842
:10BA300025D1002C23D002F0B3F83046114EF0602F
:10BA40003046103005704570029981704460756011
:10BA5000357001240C4875702405046003211420FE
:10BA6000FFF79AFC09480460094CA76003211120E4
:10BA7000FFF792FC6068B060002005B0F0BD0720C1
:10BA8000FBE700006020002080E200E000E100E031
:10BA900000150140FEB51F4B5B68002B30D000281D
:10BAA0002ED0052901D20720FEBD4369002B27D0E7
:10BAB000437C012B26D000270291044600256946CD
:10BAC00016460D70684600F0F1F801A802F016FD68
:10BAD000002819D0012101700F4944604968816034
:10BAE000029907614661C16068460A490079487059
:10BAF0006846007800F0F8F802F094FA2846FEBD97
:10BB00000820FEBD0F46D7E768460425007800F000
:10BB1000EBF8F3E7702000200015014010B508494C
:10BB2000496800290AD0002808D04169002905D0B9
:10BB300000210174022102F09DFA10BD082010BD01
:10BB40007020002070B50C4D0146AE780B48FFF711
:10BB500027FF0446002E0CD00020A870691C01228B
:10BB6000C81D01F06FFD002803D005A2D521FFF705
:10BB7000D7FE204670BD000080200020E82600206F
:10BB80002E2E5C2E2E5C2E2E5C2E2E5C2E2E5C2EEF
:10BB90002E5C636F6D706F6E656E74735C6C696242
:10BBA0007261726965735C756172745C6170705FFB
:10BBB000756172745F6669666F2E6300F0B5274E1B
:10BBC00089B01F460D00044672601CD0A888296801
:10BBD00082B22348FFF7EFFE002815D1A889A96893
:10BBE00082B21F481030FFF7E6FE00280CD1202259
:10BBF0001C496846FFF7A0FA60690690207C00287F
:10BC000004D0012103E0072009B0F0BD00216846FF
:10BC100001750777607C002800D00E2069464875C2
:10BC2000E0680290A068039020680190606800902E
:10BC30000A480D4A083001F0C5FC0028E4D1B07074
:10BC40002068401CE0D00548083001F029FD034978
:10BC50000122491CC81D01F0F5FCD5E78020002019
:10BC6000E8260020A4E60100BDE2010010B501466F
:10BC70000C48FFF7B2FE040012D10B4801F0DAFDC8
:10BC800000280DD1084907480839FFF789FE002828
:10BC900006D1054901220839034801F06BFD04462D
:10BCA000204610BDF82600208820002030B5EFF394
:10BCB000108172B6094A54680123002C04D0037025
:10BCC000002900D162B630BD5360054B1D68054C9C
:10BCD000254015601C6000220270F1E794200020CE
:10BCE00080E100E0FC06FFBC08494A68002A0CD04D
:10BCF00000280AD1EFF3108072B60A68044B1A606C
:10BD000000224A60002800D162B6704794200020CB
:10BD100000E100E0F8B5074608680C460526411C1E
:10BD200001253602002906D0294681401948816044
:10BD3000206801F0D0FD6068411C02D0002101F0B4
:10BD4000C1FD3968A06989194862607D217D3A6822
:10BD500008439119C866386806CC80194261C160F1
:10BD6000207B083C012814D1A068411C02D000218E
:10BD700001F0A8FDE068411C05D0854005488560BC
:10BD8000E06801F0A8FD3A68E1689219A068916046
:10BD90001061F8BD00050050F0B50C4693B01F21AE
:10BDA0006A461180072600279180002809D0C178B3
:10BDB00049070DD502A9FFF702FC002809D102AD01
:10BDC00001E000251780002C0ED0E078002802D07A
:10BDD000304613B0F0BD01AA0AA92046FFF7EFFBD9
:10BDE0000028F6D10AAA02E0684600228780684649
:10BDF0008088C3B268460088C1B2284672DFE8E78F
:10BE0000FFB581B01E460A9F1346040047D0002BA1
:10BE100045D0504D012028700020E870202219469E
:10BE20004D48FFF789F900206F61C0432E612881DA
:10BE3000284607211830FFF798F947483C21203061
:10BE4000FFF793F94448217820300170A178817080
:10BE5000E178C170617841703F4A65692369556333
:10BE6000114613632031E368A268CB608A603A49C7
:10BE7000E369A269CB638A63616A00291AD001462B
:10BE80003C310246483241628A60636A1B880B80FB
:10BE9000616A436A898899800021436A07E00E201D
:10BEA00005B0F0BD656AAD686D5C5554491C9D8850
:10BEB0008D42F7D8A16A00291CD0274A9432114636
:10BEC0000C398A608162A36A9B888B80A16A836A2D
:10BED000098819800021836A04E0A56AAD686D5C59
:10BEE0005554491C9D888D42F7D82C210A5D1A496A
:10BEF00040310A73216A002909D016490A310162CA
:10BF0000226A52884A80216A026A0988118061681F
:10BF1000002900D04160104A0E490020B332203180
:10BF2000C3001B1A85009B180C68401C635108282D
:10BF3000F6DB094A0020EB32030185009B188C6870
:10BF4000401C63510828F7DB034802992030FFF7B3
:10BF500023FFA5E7082000204824002010B5018811
:10BF6000134C102915D0112919D01B2910D1007A92
:10BF700000280DD1E0780521401CFFF7C7F80846DE
:10BF800000F036F8002803D06169002900D0884706
:10BF900010BD817D0129FBD18088208110BD002149
:10BFA0006171808821898842F8D10120E8E700008A
:10BFB0000820002010B574DF0B4C012060710B4984
:10BFC0000620C87000210948FFF7E6FE002809D1C5
:10BFD000E07800F00DF8002803D06169002900D056
:10BFE0008847002010BD00000820002068240020A1
:10BFF000F1B53F4C88B0207800280AD00898E0704E
:10C0000006A800F04DFE06980125002804D06570B2
:10C010006AE0082009B0F0BD354800270721183034
:10C02000FFF7A3F8334E7078002802D0E07801289B
:10C0300007D0B07800280CD0E078012801D0022881
:10C0400007D12169002903D025710820884700E025
:10C0500027710898FFF77AFBE0702169002909D061
:10C06000032801D0042805D13078002802D0607957
:10C07000002811D0A77118216846FFF776F86846A6
:10C0800007700772E1781A480B001830FFF75EFA64
:10C09000052E080F191D2000A57107208847EAE723
:10C0A000A5700190684605704782078213E002215F
:10C0B000A170019068460570B18941823189018281
:10C0C00009E0684601F092FE02E0684601F0BAFE1F
:10C0D000E078002803D0684673DF00289AD12169F0
:10C0E000002901D0A0788847002093E7A770F6E7E1
:10C0F000082000204824002070B5054601461C2277
:10C100000E48FFF719F80E4C002626702968002902
:10C1100006D00822201DFFF70FF8201D7ADF02E06D
:10C120000748001D7BDF002807D1401E6080667035
:10C13000044A00210448FFF75DFC70BD142600206E
:10C140003820002099E4010084E60100F8B5214C74
:10C150000146028800261E48E589102A13D01E4F8A
:10C16000112A1FD0122A2BD0502A1AD1881DC98813
:10C17000A94216D14189022913D10C3000F0FEF8F2
:10C1800000280CD112E08A88044642801048082218
:10C190000C301831FEF7D0FF6670002D01D100F091
:10C1A000E1FCF8BD0021C943418046703868FFF7C3
:10C1B000B5FC0028F5D0A1690029F2D08847F8BD68
:10C1C000034808220C300831FEF7B6FFE7E700000D
:10C1D000382000201426002084E601007CB50546A6
:10C1E00008880C460930904201D90C207CBD684675
:10C1F00071DF0028FAD121880820685420881B218B
:10C20000401C80B220802954208800A9401C80B2A4
:10C210002080401906220131FEF78EFF20886946F2
:10C22000801D80B220800978002900D00121295486
:10C230002088401C208000207CBD000010B50446F2
:10C24000FFF784FF2146064800F040F8204601F041
:10C25000E3FB2046FFF782FE204600F075F910BD93
:10C260008C23002030B5184B0D4604000FCB85B051
:10C2700003936B4607C324D0002D22D00020C04377
:10C28000A0822868A0610020A0752146684663DF6F
:10C29000002814D121786846817401210182A21CF2
:10C2A00004A90120A0DF002809D12946204601F079
:10C2B000ACFC002803D12946204601F06EFF05B0F2
:10C2C00030BD0E20FBE7000088E6010010B5002815
:10C2D0001BD0002919D00A88102A17D0112A17D08C
:10C2E000502A12D104468A1DC888238A12319842E6
:10C2F00002D15389022B0FD0A388984205D1A3699C
:10C30000002B02D052892046984710BD898801E051
:10C310000021C943818210BD084600F02FF8002893
:10C3200000D00120A07510BD07B584B000280DD045
:10C33000828A114B9A420BD0827D002A08D06A462D
:10C34000128B142A06D9072007B000BD0E20FBE788
:10C350000820F9E70022009201920292039282895A
:10C360006B461A80039106A9029101219970808A77
:10C370006946A6DFE8E70000FFFF00004178027889
:10C3800008021043C007C00F7047000000B51948ED
:10C3900087B00068059000234822174905A801F0DE
:10C3A000CDFD002804D0FF21144AB631FFF7B8FABA
:10C3B0006A460121002001F0A9FD002804D0FF21D8
:10C3C0000E4ABC31FFF7ACFA684601F095FD002833
:10C3D00004D0FF21094AC631FFF7A2FA084801F04C
:10C3E00081FD002804D0FF21044ACA31FFF798FAE2
:10C3F00007B000BD20E60100B820002090D1010068
:10C400003DC201000149085C7047000051E601008F
:10C410000549095C05480069C840C007C00F00D045
:10C42000012001214840704751E6010000050050FD
:10C4300005490B5C05494A6801209840034693432F
:10C440008B601040C86070474DE601000005005049
:10C4500010B50349085C012101F06AFA10BD000023
:10C460004DE6010010B50349085C002101F060FAB7
:10C4700010BD00004DE601000549095C0548406813
:10C48000C840C007C00F00D00120012148407047BC
:10C490004DE60100000500507CB50024074E2546FE
:10C4A000305D0122009500231146019501F0CEF97F
:10C4B000641C042CF4D300F003F87CBD4DE60100AD
:10C4C00010B500242046FFF7C3FF641C042CF9D3E9
:10C4D00010BD10B500242046FFF7C4FF641C042CD7
:10C4E000F9D310BD0246002010B5C043054B002112
:10C4F0005C5C944201D1084610BD491C0429F7D365
:10C5000010BD000051E6010070B50E4E00250C462E
:10C51000306000290DD0012000F0AEF8002801D0D5
:10C52000022005E0002000F0A7F8002800D00B2032
:10C5300020707068002802D1FFF73CF905462846B4
:10C5400070BD00000020002010B51C4C0188606800
:10C5500010290DD011290AD1401E606007D1FFF7C4
:10C5600029F9002803D02168002900D0884710BD90
:10C5700000281ED100210122084600F0B3F800284F
:10C5800001D0072811D107220221012000F0AAF8CA
:10C59000002801D0072808D104220221002000F041
:10C5A000A1F8002805D0072803D02168002900D071
:10C5B00088476068401C606010BD000000200020BB
:10C5C00010B5002000F0CCF9002801D0062807D1D2
:10C5D000012000F0C5F9002801D0062800D1002074
:10C5E00010BD0000F3B581B00D460198FFF77AFF4A
:10C5F0000446042813D21D481D4F1E4E002D27D07F
:10C60000012D0DD0022D0AD160002018C0194578E7
:10C61000002D04D0F168002901D028468847FEBDCE
:10C62000610061187D5CCF19797800290BD07168A1
:10C630000A2251430F4A8068921CFFF72BFA002808
:10C6400001D10198B0700B48B97810300155DFE77F
:10C650008068FFF763FA0748610061181030C91954
:10C66000005D8D78A842D3D0FEBD000058E60100E1
:10C670001C240020EC1F002010B5FFF7C9FE10BDE0
:10C68000014610B511480429408806D007290ED06C
:10C690000A2901D101F000FC10BD132176DF082822
:10C6A000FAD00028F8D0FF2109A2DF310BE00C49B5
:10C6B0008842F1D1FFF77EFC0828EDD00028EBD0AE
:10C6C000FF2103A2E931FFF72BF910BDE81F00207D
:10C6D0002E2E5C2E2E5C2E2E5C6D61696E2E6300FC
:10C6E000FFFF000070B50023042811D24400041994
:10C6F0000D4D012A02D101290DD0002246008019DA
:10C70000094E801900290CD0012906D0022906D033
:10C710000723184670BD0E30C2B22A55F9E74270A1
:10C72000F7E78270F5E700001C24002010B5054AE9
:10C730000146127A0020D20702D0084600F050F8D5
:10C7400010BD0000EC1F0020F8B506461F4800246D
:10C750008660C26041600F46B00720D500250122E7
:10C7600011462846FFF7BEFF6D1C0446042D02D279
:10C77000002CF4D013E0002C11D17A0804211448C5
:10C78000FFF790F804000AD1FFF77AF8040006D109
:10C790000F48104A0021001FFFF72CF90446F0074C
:10C7A00001D0FFF779FE002C0ED109480A4A00217A
:10C7B0000C38FFF71FF9040006D10548074A01218C
:10C7C0000838FFF717F904462046F8BDEC1F002093
:10C7D00064E6010071C90100CDCE010075B8010009
:10C7E000F8B55D4C054660780026002803D000208F
:10C7F0006070FFF765FE0120584F2B00FEF7A6FE84
:10C8000018970D0D2E3D4A5F64686F686FA97777A2
:10C81000777777979A9DA0A9A9950020FFF72CFE1E
:10C8200000280AD00020FFF713FE022D02D1E120DC
:10C83000C0000BE07D20400108E00020FFF712FE61
:10C84000022D01D1C82001E0FF2091302570642124
:10C85000FEF75CFC6168414300222BE00020FFF7FB
:10C860000BFE002805D00020FFF7F2FD1920400143
:10C87000ECE70020FFF7F6FDE4E70020FFF7FCFD02
:10C88000002803D00020FFF7E3FDD3E70020FFF7E7
:10C89000E9FDD9E70020FFF7EFFD002803D00020D5
:10C8A000FFF7D6FD02E00020FFF7DCFD2570606891
:10C8B000410000223868FFF7EDF8064635E0002019
:10C8C000FFF7B6FD257007E000203FE025702CE063
:10C8D00060700120FFF7ACFD00226168EAE760703C
:10C8E0000120FFF7A5FD606881004118E1E7786845
:10C8F000FFF714F906461120401B01D0002E03D08B
:10C900000220FFF7A5FD10E001280BD9C8214843FC
:10C910006421FEF7FBFB6168002241437868FFF762
:10C92000B9F806460220FFF79DFD3046F8BDFFF737
:10C93000C7FDCBE7FFF7C4FDC6E7FFF7C1FD04E085
:10C94000FFF7BEFD0020FFF78DFD0120FFF78AFDF8
:10C95000BCE7FFF7BEFDB9E7EC1F002058E6010079
:10C9600010B5FFF74FFD032100F0BFFF002010BD01
:10C9700010B500780221FFF735FE10BD0022D2432A
:10C98000830004490428CA5002D3081820300277D3
:10C990007047000044260020F0B50025ED43002A32
:10C9A00002D00023042601E0042308260B4C04E0F7
:10C9B0009F00E7597F1C04D05B1CB342F8D3284684
:10C9C000F0BD26185DB2203635709E00A151002AB8
:10C9D000F5D1E11820310877F1E700004426002066
:10C9E00002490918202008567047000044260020FC
:10C9F00070B5084C050009D010342168002907D013
:10CA000008682060496828468847F6E70834F4E754
:10CA100070BD000030260020F8B523484168002989
:10CA20003ED00E6821494C6887688078E11B0D0272
:10CA30002D0AED1C002814D101201D4A000450606D
:10CA40001B4A403A50601B49400008601A49086080
:10CA50001A49012008602F2000F048FC12490120EB
:10CA60008870B54200D23546E81900020F4B000A23
:10CA7000403318600D4A5168001B091B0902090A5E
:10CA80000002000AC91C814209D9506818602F2091
:10CA900000F02CFC01200749400480390860F8BDF3
:10CAA00001F07EF8F8BD0000602000200015014074
:10CAB0004013014080E200E000E100E0001001408E
:10CAC000F8B50646108814468446801D0D469842E7
:10CAD00001D90C20F8BD32880720062AFAD319277D
:10CAE000FF01184BBA4201D99A42F3D17188062945
:10CAF000F0D3B94201D99942ECD19A4203D099427C
:10CB000001D08A42E6D805216046295420881221A6
:10CB1000401C80B2208029542088401C80B2208094
:10CB20004119308801F0B2FC2188401880B2208081
:10CB30004119708801F0AAFC21884018208000204B
:10CB4000F8BD0000FFFF000010B502A2EF21FEF7C4
:10CB5000E7FE10BD2E2E5C2E2E5C2E2E5C6D6169C4
:10CB60006E2E6300F8B5164800F07EF9144D0026CD
:10CB70000C3D144C002807D0616900291CD001200D
:10CB80006A461070684616E02878002805D061696A
:10CB9000002911D0684606700DE0687800280DD095
:10CBA000A168094800220068FEF774FF002803D03E
:10CBB000A169002900D088472E70F8BD6168F0E7B0
:10CBC000442000201426002084E60100F8B5002649
:10CBD0000124154D23E06968F00047183878214694
:10CBE0002A698140114218D08A432A6100F0AAFCC8
:10CBF0003A782146EB6891401940034693409942A8
:10CC00000BD17978012901D0012100E000217B6856
:10CC10004140002B01D010469847761CF6B2287888
:10CC20008642D8D3F8BD00004C20002010B50E4934
:10CC300000230A784C78A24212D0521CD2B20A7059
:10CC4000022A00D10B700A78074B920018339A58C9
:10CC50000260886810180002000A8860012010BD78
:10CC60000360002010BD00006020002082688388DF
:10CC70001A4003689A5C0A708168491C8160704799
:10CC8000C26883881A4003689954C168491CC1600E
:10CC9000704710B50446C0B2FEF7E8FF204610BD4D
:10CCA000002804D00349496E01600020704703202A
:10CCB000704700000827002000B50120014693B00E
:10CCC00068461031017210A800F040F81AA207CA95
:10CCD00003AB07C35F216846017611A8FEF726FB68
:10CCE000002805D0811C06A804220130FEF724FA92
:10CCF00003A8FEF745FA82B203A902A87CDF002848
:10CD000003D0114A9E21FEF70BFE00200090102256
:10CD1000694601900A803C224A808880FF20913039
:10CD2000C88068467ADF002803D0074AA821FEF7AA
:10CD3000F7FD13B000BD0000534F4D5055544F4EFA
:10CD40005F3038410000000090D101007CB50446FE
:10CD5000684671DF002803D007A21D21FEF7E0FD21
:10CD60000620052200A90131401EC0B2151A0B5C35
:10CD700063550028F8D17CBD557365725F436F6DB4
:10CD80006D6F6E5F46756E632E630000F8B50746E3
:10CD9000104E0125BD403068FEF7C0FE00280DD1C1
:10CDA0000D4C2069284207D1384600F0CBFB002803
:10CDB000E06804D0284303E0A8432061F8BDA843FD
:10CDC000E0602069002228432061A1683068FEF7F6
:10CDD00061FEF8BD9CE601004C200020F8B5204C17
:10CDE000207800283AD0E068002600280ED00025E0
:10CDF0006078002832D1684652DF052808D0002824
:10CE000008D0184AA521FEF78BFD0BE00125EFE7BE
:10CE1000012607E0009800F0BFFA2169002901D03F
:10CE200000988847002D15D16078002816D16088B9
:10CE300069460880A06861DF052806D0002806D072
:10CE4000084ACA21FEF76CFD04E0012502E0E16812
:10CE5000A0688847002ECBD0002DE3D0F8BD00009D
:10CE6000A0200020C4E601004188054802889142C4
:10CE700004D34088814201D80120704700207047C8
:10CE80003C2000201048018CC9B2012917D1818CA7
:10CE9000090714D1018D09060A0F03D1828D1206EC
:10CEA000120F0ED0090F012903D1828D1206120F25
:10CEB00007D0032903D1808D0006000F01D0002088
:10CEC0007047012070470000C00F00F010B5044803
:10CED000017AC90702D00078FFF782FC10BD00007C
:10CEE000EC1F0020F0B5284C2146103948688B68AB
:10CEF000227886469C46CF78667836E018235343DE
:10CF00006168521CC918A378D2B2934200D10022A2
:10CF10000B78022B02D0032B27D123E003464D6868
:10CF2000194603E0A94204D00B46C96900291CD068
:10CF3000F8E7002919D08B4208D1C069002805D133
:10CF4000124F0125BD600025AC4601270D68C96957
:10CF5000D961002909D00B685B190B6005E00174E9
:10CF6000C06900E000210028F9D19642C6D10649E7
:10CF7000624610398A604860CF70704501D0012048
:10CF8000F0BD0020F0BD0000702000200010014026
:10CF9000F8B52C4E044670680025009041E0002C46
:10CFA00002D02046E46920E026481823103001789A
:10CFB00042684B43491CC9B2D21801708378994228
:10CFC00000D105701178506801292CD1017C00290D
:10CFD00029D191684160D16881601169C16051694E
:10CFE0008161F178002900D045604368B268164F2E
:10CFF000991A0902090AB94202D28268891806E020
:10D00000D11A09028268090A8A4202D9511A0160BA
:10D0100000E005604560012185600174C56101F093
:10D0200009F8002CBBD107481030017840788142C4
:10D03000BAD171680098814201D00120F8BD00206A
:10D04000F8BD000060200020FFFF7F0000238AB0B1
:10D05000464A05211846FEF7E3FC002803D044A207
:10D060004749FEF75DFC182246496846FEF764F81A
:10D07000FF2101314448069040180791099108901A
:10D080000323424A06A96846FEF798FD002804D00B
:10D090003B493FA25539FEF743FC414A4149032031
:10D0A000FFF752FB002804D09D2139A28900FEF72A
:10D0B00037FC69460020FFF727FA002804D03049E2
:10D0C00033A21739FEF72CFC6846007802284BD0B3
:10D0D000002069460871FFF759F9FFF7EDFD324866
:10D0E00000902248002469467830FFF7BBF80028FA
:10D0F00003D027A2CE21FEF713FCFEF779FB1C21FB
:10D100006846FEF732F80520C00301900F200004A6
:10D1100002900094032168460173C481047423487B
:10D120000590234806906846FEF7E6FF002804D0E5
:10D13000FF2117A20731FEF7F3FB1EA0FEF7FCF953
:10D140000320FEF755FF002804D00D4908A20C313A
:10D15000FEF7E6FB0A4C0C3C48DF0028FCD00CA292
:10D160002146FEF7DDFBF7E70120B2E7142300209C
:10D170002E2E5C2E2E5C2E2E5C6D61696E2E630051
:10D180008E02000024E601001421002035E2010097
:10D190002E2E5C2E2E5C2E2E5C6D61696E2E630031
:10D1A00081C60100CD0C0000AFD901003DDB0100BC
:10D1B00049CB01000D0A55415254205374617274D9
:10D1C000210D0A0070B5144682880E460546208857
:10D1D000111D4118921C994201D8FE2A01D90C2038
:10D1E00070BD521C32542088FF21401C80B2208028
:10D1F00031542088401C80B220808119288801F099
:10D2000045F92188401880B22080AA88002A09D0D8
:10D21000A968002908D08019FDF78EFF2088A98809
:10D2200040182080002070BD072070BDF8B50F4663
:10D23000017814460546012902D16878002806D0F5
:10D240002088821C9A422DD8012902D006E00720AE
:10D25000F8BD69784118891C994223D8181A801E94
:10D2600086B2684606802188B81C081869467DDFAA
:10D270000028EDD12878022805D169460988B142F5
:10D2800001D809210AE00821012805D16878B042B7
:10D2900002D86A46108001E0684606806846008829
:10D2A000FE2801D90C20F8BD2288401CB8542088E3
:10D2B000401C80B22080395420886946401C208060
:10D2C0000988401820800020F8BDC20843075B0F82
:10D2D0000120895C98400840704701218907401867
:10D2E0000068002800D001207047000000280FD0FF
:10D2F0000849094A096800BF00BF00BF00BF00BF5E
:10D3000000BF00BF00BF914200D000BF0138F2D182
:10D3100070470000B42000200024F40070B50E4CCB
:10D3200000252078002801D0852513E00021A16088
:10D3300061602161E160094800680126304002D146
:10D34000032100F02FF800F025FE002801D1044849
:10D3500086612670284670BD3026002000E100E07E
:10D360000005004038B50020694608706846FEF7A1
:10D370009DFC084C2078002801D1FFF7CFFFE06822
:10D38000401CE0600120A07068460078FEF7ACFC0D
:10D3900038BD00003026002010B5002801D1FFF76D
:10D3A00027FB10BD8207D30EFF229A408907090E82
:10D3B00010B5994000280BDA03071B0F083B9C08A7
:10D3C0000C4BA400E318DC6994430C43DC6107E0D8
:10D3D0008408094BA400E418236893430B4323609B
:10D3E000C106C90E0120884004490860044908604C
:10D3F00010BD000000ED00E000E400E080E200E08D
:10D4000000E100E0F3B581B0054600F0B1FB1F4F2D
:10D410000028284617D0FFF7E3FAC0192030007F14
:10D420008009032802D001280BD005E018480069C4
:10D43000E840C007C00F04D00321284600F066FA78
:10D44000FEBD0221F9E700F09FFB0028F8D0284636
:10D45000FFF7C6FA04468000C11D0E4AF931801854
:10D46000026989B2012632430261084600F080FA5F
:10D4700002980028E4D02846FFF7B2FA8000385816
:10D480000028DDD00448A6404660FEBD44260020AA
:10D49000000500500065004000630040FEB50446F2
:10D4A00025480E460019202141560027C81713466B
:10D4B000401C01D008273CE0F27819462046FFF7CF
:10D4C0006BFA0546401C33D0B07800280BD00520FD
:10D4D0000007A100091807200002091808680222A5
:10D4E0009043086007E000217378204600910A46C7
:10D4F000019100F0BFF9F078002810D00F48AA0081
:10D500001018317802690E4B1A400261E206D20C03
:10D510008907890B0A4301690A43026109E0064849
:10D52000327840192030017F92011143017700E0E9
:10D5300004273846FEBD0000442600200065004058
:10D54000FFE0FCFF03490969C140C807C00F00D0D4
:10D55000012070470005005070B5144D287900284F
:10D5600001D0082070BD114900204039421E0B181F
:10D570002033401CC0B21A702028F8D30024204663
:10D58000FFF7FCF9641CE4B2082CF8D30321062051
:10D59000FFF708FFFF207D3000F0EAF90120044981
:10D5A000C007486001202871002070BD842600203B
:10D5B0000063004002480079002800D00120704735
:10D5C00084260020F8B506460F4600791C21484302
:10D5D0001A4915464418E07E002801D00820F8BDFD
:10D5E00039463046FEF796FB65603869206028466C
:10D5F0000025002813D0FF223068397F1D32855066
:10D60000FF22306845328550032330681B020C4AE4
:10D61000C01842603068000B40B2FFF7C3FE05221D
:10D6200030680421120280180160E5752576A57521
:10D630000121E1762846A576F8BD00008C26002061
:10D6400080000200F8B503791C246343134C812544
:10D650001C19032766680023AD003F02002E02D08C
:10D660000668F619B560E67D002E0ED0237E002BED
:10D6700007D06168002902D00068C01945601120F8
:10D68000F8BD21610123227604E0E2750025E16006
:10D690006576257600F01AF8F8BD00008C2600208B
:10D6A00070B5044600791C21074D48434019807E1F
:10D6B000002808D1204600F001FB20791C2201211E
:10D6C00050434019817670BD8C260020F8B5044681
:10D6D00000791C21484326494518A87E184302D1E9
:10D6E000204600F0EBFA6868002808D08121032268
:10D6F000206889001202801841600020F8BDFF20D8
:10D700004530216800220A50FF212531206800F0B1
:10D7100041F90646FF210931206800F03BF90090ED
:10D72000FF214531206800F035F90746009838435D
:10D730003043E9D03046384307D12946206800F00D
:10D7400051FAE87D697E8842DED80020E875002E17
:10D7500001D00320F8BD002F01D00F20F8BDA97E15
:10D7600001200029216801D00860C6E74860C4E7AD
:10D770008C26002070B505460C4600791C214843D4
:10D7800008494318284600F055F8002801D0112018
:10D7900070BD9A7500209C609882284600F004F8BD
:10D7A00070BD00008C260020F8B5044600791C21CD
:10D7B00048431F4900264518FF2720681D37C651DA
:10D7C0002068012181602946206800F0D7FC696843
:10D7D000002913D027E0FF270137FF211D312068E2
:10D7E00000F0D8F8002802D1A88AB842F5D1A88A5A
:10D7F000B84203D02946206800F0C0FCA88AA97D61
:10D800008842E8D3A98AC81FF9380ED0FF271D37F0
:10D810003946206800F0BEF80028F9D020680121C0
:10D82000C1600020A8753046F8BD0F26F9E700005A
:10D830008C26002000791C21484303494018807D34
:10D84000002800D0012070478C26002070B55200BF
:10D850000A439900049D0A432902059E0A433104A4
:10D8600005240A43240780000721001909024018F3
:10D87000026070BD70B552000A439900049D0A43CE
:10D880002902059E0A43310405240A432407800027
:10D890000721001909024018026070BD70B55200DE
:10D8A0000A439900049D0A432902059E0A43310454
:10D8B00005240A43240780000721001909024018A3
:10D8C000026070BD1CB500220B4600921146019209
:10D8D000FFF7E4FF1CBD1CB5002100910B4601229F
:10D8E00001911146FFF7DAFF1CBD052212078000E7
:10D8F0008218072000021018026803231B049A43B1
:10D900000260026809040A43026070470522120798
:10D9100080008218072000021018026803231B04ED
:10D920009A430260026809040A43026070470000DB
:10D93000012282400348002901D082607047C26002
:10D94000704700000005005038B5084B05241B68DF
:10D95000009324026B46411805E085005D592D199E
:10D960002D69401C20C28142F7D838BD98E60100DD
:10D97000024940180021016070470000006000402B
:10D98000034940180068012800D0002070470000BB
:10D99000006000404058002800D00120704703225A
:10D9A000120280184068084000D00120704770B50E
:10D9B00016460D46002405E0285DFEF757F90028BD
:10D9C000FAD1641CB442F7D30D20FEF74FF90028BA
:10D9D000FAD10A20FEF74AF90028FAD170BD0000FA
:10D9E00010B500280CD0032809D10220FEF79EFEB6
:10D9F000002804D0FF2104A22C31FDF791FF10BDB7
:10DA000000F04AFA10BD00002E2E5C2E2E5C2E2E49
:10DA10005C6D61696E2E630070B50446424D0088EE
:10DA20006E8888B03A284AD012DC022850D01028DC
:10DA30001DD0112827D0132832D100231A46852162
:10DA400030467FDF00282BD0FF2138A2503133E051
:10DA5000512846D0522825D0552821D1A0881321FD
:10DA600076DF00281CD0FF2130A2643124E007209B
:10DA7000FEF75CFE002804D0FF212CA24331FDF705
:10DA80004FFFA0880BE00020FEF750FE002804D0D6
:10DA9000FF2126A24931FDF743FF0020C0436880E3
:10DAA00008B070BD00231A4619463046A9DF002889
:10DAB000F6D0FF211DA25631FDF732FFF0E7A08816
:10DAC000132176DF0028EBD0FF2118A25D31F3E7A8
:10DAD000A088002167DF0028E2D0FF2113A269316E
:10DAE000EAE71022A11D04A8FDF726FB6846017C89
:10DAF0000029D5D0007E042803D0062801D00528AF
:10DB0000CED102290DD0012069460870FF20833054
:10DB10008880A088A8DF0028C2D0FF2103A284311A
:10DB2000CAE70220F0E70000E81F00202E2E5C2E3E
:10DB30002E5C2E2E5C6D61696E2E630010B5007830
:10DB4000002809D105483B21408876DF002803D012
:10DB500003A2E421FDF7E4FE10BD0000E81F002051
:10DB60002E2E5C2E2E5C2E2E5C6D61696E2E630057
:10DB70000449081820214156042901DB012070477F
:10DB800000207047442600200449081820214156EF
:10DB9000042901D20120704700207047442600204C
:10DBA00070B501240B49600408600B49401088607F
:10DBB000094940398860094D6C602F20FFF796FBBA
:10DBC000AC60074D00242F20AC60FFF78FFBAC70DA
:10DBD00070BD000080E100E04013014000100140F2
:10DBE0006020002030B5FF220523CD7D00240932BE
:10DBF0001B02C318002D8450986905D04B7ECA685B
:10DC0000D054487E401C487630BD70B5002405468F
:10DC1000601C90B00007000F08A91030089408702D
:10DC2000601C0007000F103048708878F9263040DB
:10DC3000801C88701C2101A8FDF797FA69460879B5
:10DC40001021084369460871029408A804940594B9
:10DC500007940690287808A988710320694688846B
:10DC600011200094087048708878F7213040801C9B
:10DC70000840EF210840012630436946887014218E
:10DC80000AA8FDF772FA09A80A9068460B9069463F
:10DC90000E8614204C8688862B4668880C330AAA88
:10DCA00001A9A2DF10B070BD1FB501246B461C7026
:10DCB0001972019206C8684690471FBDFF2325339D
:10DCC00002680021D150FF2302680933D150006857
:10DCD000012101607047000010B50446FDF752FCB9
:10DCE00000280CD0A007C00E002C0ADA2107090F6B
:10DCF00008398908144A89008918C96906E0134857
:10DD000010BDA108124A890089180968C140080697
:10DD1000800F042811D200280FD002280DD00D4901
:10DD20004B68E206D20E01209040002B08D0620919
:10DD300092008B5803438B5004E00448401C10BDF4
:10DD400005490860002010BD00ED00E00120000042
:10DD500000E400E09420002000E100E0FFB5074669
:10DD6000806A81B0144600283DD000253846203016
:10DD7000009033E00C20B96A68430E18B088801C0C
:10DD8000FE2802D90C2005B0F0BD22880299401C63
:10DD9000885420881622401C80B2208002990A54A0
:10DDA0002088401C80B2208002994118308800F001
:10DDB0006DFB2188401880B22080B288002A0AD0EA
:10DDC000B16800290FD0029BC018FDF7B5F9208873
:10DDD000B188401820806D1C0098EDB2007BA842ED
:10DDE000C8D80020CFE70720CDE7000070B5044673
:10DDF0001248134D018A2182818A618200780028AD
:10DE000018D06879002815D100F0FEFB002811D049
:10DE100028462030E060022008492072042020318A
:10DE2000C870064800212030FDF7B6FF002804D155
:10DE3000052000E00320A870002070BD48240020C9
:10DE40000820002070B5044611480426018B218269
:10DE5000818B618200780F4D002816D068790028E8
:10DE600013D100F0D1FB00280FD028462030E0600D
:10DE700002202072064800212030C670FDF78CFF7A
:10DE8000002804D10620A87000E0AE70002070BD0C
:10DE9000482400200820002010B50020FEF746FC92
:10DEA000002804D0FF210BA21231FDF739FDFEF747
:10DEB00087FB002804D0FF2106A21631FDF730FDB4
:10DEC0003CDF002804D0FF2102A21A31FDF728FD13
:10DED00010BD00002E2E5C2E2E5C2E2E5C6D616916
:10DEE0006E2E6300002803D00249C86000207047EE
:10DEF0000E207047A02000201CB50349019100911D
:10DF0000694660DF1CBD0000E81F002070B50E46AA
:10DF10000546144614211046FDF727F9012000217B
:10DF200020802161217326726572002D00D0A072BD
:10DF3000002070BD10B5FDF7EFFC10BDF8B500294D
:10DF400003D08C070025002C01D00720F8BD0E4E11
:10DF50000E4FB1607280736039680124214003D094
:10DF60000A49254680310C60094910DF002803D09A
:10DF7000002DEBD03C60F8BD3470FFF7F3F91620AC
:10DF8000FFF7AAFEF8BD0000A020002000E100E09D
:10DF900035DF01000148007870470000A020002014
:10DFA000FEB51F4C0025A768606802906846FEF722
:10DFB0003DFE0190FEF796FF06460198002822D00C
:10DFC00000230098616817E00E680A46864202D96D
:10DFD000301A086012E0801BF31800261660D6681D
:10DFE000D169B446002E07D0FE183602360A5660B4
:10DFF00066469660D56115460029E5D128466160E0
:10E00000FEF7C6FF06E02846FEF7C2FF002801D152
:10E01000002E02D00298FEF7FFFC0020E070FEBD4B
:10E0200060200020012002490005086070470000C0
:10E0300000E200E010B50E4B5968002906D00268D6
:10E040000C68A24204D8A21A0A60C161586010BDCF
:10E050000B4604E00B46C969121B002904D00C686A
:10E060009442F7D3A41A0C600260C161D86110BD5C
:10E07000602000207CB50D460646002469460C70E1
:10E080006846FDF713FE01A800F038FA00280DD00D
:10E09000057046606846084900794870684600780F
:10E0A000FDF722FEFFF7BEFF20467CBD6846042434
:10E0B0000078FDF719FEF7E770200020F8B51E4D37
:10E0C0006C68002C37D01D4800274068A968401AAA
:10E0D0000602360A2068B0421BD8361AC7192246F3
:10E0E000107CE469002812D000201074EB68002B2B
:10E0F0000AD0916950699847002808D0FF2110A2E2
:10E100006A31FDF70DFC02E0516990698847002CE7
:10E11000E0D129786878814206D1401CC0B268708D
:10E12000022801D10020687003490006800D1831D3
:10E130000F50FFF777FFF8BD602000200015014069
:10E140002E2E5C2E2E5C2E2E5C2E2E5C2E2E5C2E09
:10E150002E5C636F6D706F6E656E74735C6C69625C
:10E160007261726965735C74696D65725C6170700F
:10E170005F74696D65722E6300000000FF221D321E
:10E18000002383508B8A8A68D25C8B8A5B1C8B82CB
:10E19000052109024018C261704770B58EB005466E
:10E1A0001C216846FCF7E1FF694608780C2108430A
:10E1B000694608700024019403940494059406941D
:10E1C000287808A98870022069460884601C000726
:10E1D000000F10300794087711204877887FF921C5
:10E1E0000840F721801C0840EF21084001263043F9
:10E1F00069468877142109A8FCF7B7FF08A8099099
:10E2000007A80A9069468E851420CC850886688800
:10E210002B1D09AAA2DF0EB070BD1FB500226B46F0
:10E220001A70197281680191827506C86846904714
:10E230001FBD000070B50178002908D0012927D042
:10E24000022924D18521406815A2890024E0194CB7
:10E25000174D20782818FDF775FC2078401CC2B2B5
:10E26000A81822702038C07F0A2801D0142A0ED3A3
:10E270000F491148FEF758F8082806D0002804D0A6
:10E28000832107A28900FDF74BFB0020207070BDA1
:10E290004321406802A2C900FDF742FB70BD0000A7
:10E2A0002E2E5C2E2E5C2E2E5C6D61696E2E630010
:10E2B00000210020E81F00208C2300207CB501787D
:10E2C000264D002934D001290CD002292DD16A46CF
:10E2D0001170C068691C01900122C81DFFF7B2F9D6
:10E2E000684630E0406801781D48FDF776FB01265E
:10E2F0001B4C002803D069460E70019006E0A06810
:10E30000E168814205D000206946087008466968C6
:10E310008847A068E168081AA188884206D80F4992
:10E320000122491CC81DFFF78DF97CBDAE707CBD74
:10E330000B480A491030FDF733FB002806D00320B4
:10E34000694608706846696888477CBD03490122B0
:10E3500008460830FFF70EFA7CBD00008020002040
:10E36000E8260020F0B50C46012185B0054649029B
:10E37000FFF715FB032109026F180026002826D09D
:10E38000FF2125312846FFF705FB00281FD0FF207D
:10E3900025302E5081208000B860A07E002801D159
:10E3A000012068600221684601700920C001291817
:10E3B000086808600390E17D68460172E06801909A
:10E3C000E675267606CC6846083C90472DE0042189
:10E3D0002846FFF7E4FA002827D0FF210931284614
:10E3E000FFF7D8FA002820D021462846FFF7FAFB8D
:10E3F000E07D617E884218D1207E002807D0617EB2
:10E40000E268E0752069E060267666760AE0A07E24
:10E41000002801D10120686081208000B860E67585
:10E42000617EE2682046FFF73FFCFF271D37394633
:10E430002846FFF7AFFA00280FD0A08AA17D8842B6
:10E4400004D221462846FFF799FE06E0EE51A17D51
:10E45000002902D02046FFF7E0FEFF274537394666
:10E460002846FFF797FA00280ED0EE51A07E00282C
:10E4700001D001202860E07D002805D0E675617E8E
:10E48000E2682046FFF710FC05B0F0BD0870000AF6
:10E49000487002207047000038B51549154A488871
:10E4A00090420FD04A78144C521CD2B24A70237B4F
:10E4B000934208D3091D75DF002803D0A169002904
:10E4C00000D0884738BD00254D70217C002907D039
:10E4D0003B2176DF002803D0A169002900D08847BE
:10E4E00061690029EED068460570884738BD000094
:10E4F00038200020FFFF00001426002010B5094935
:10E500004B788C785A1CD2B2944200D100220C78FD
:10E51000944201D1002010BD0270486818214B437D
:10E52000C01810BD70200020FFB583B016460C9DAA
:10E530000D9C1F46022200950194039800F00CF8F0
:10E54000002807D13B4610223146009501940398DC
:10E5500000F002F807B0F0BDFFB583B00746002019
:10E560000C9C8646268805463AE07868A900421841
:10E570001188684681805188C1800022694601A8BF
:10E5800065DF002839D1684601780598814226D197
:10E590007046002801D0002200E00222208889185D
:10E5A00042180D998A4227D8714600290AD1401C89
:10E5B00080B22080069A049911542088401C208043
:10E5C00001208646218806980A18694601A865DF59
:10E5D000002812D1694620880978401820806D1CD7
:10E5E0003888A842C1DC704600280AD02088801BE9
:10E5F000401E80B2FF2802D90C2007B0F0BD06995A
:10E6000088550020F9E7000004480179002902D16B
:10E61000007B002800D00120704700002820002047
:10E62000010000070B0000000900000008000000C6
:10E630000A0000000000000000E0D701010203040E
:10E6400005060708090A000000000000001516175B
:10E650001811121314000000DC230020FC230020FA
:10E660002824002011000300E5C50100120003006A
:10E67000E5C5010013000300E5C501001400030017
:10E68000E5C50100F42500209ECADC240EE5A9E0C2
:10E6900093F3A3B50000406E00000050A8260020B0
:10E6A00003000000FFFFFFFFFFFFFFFFFFFFFFFF73
:10E6B000FFFFFFFF000000000000000000E0D701A6
:10E6C000030000002E2E5C2E2E5C2E2E5C2E2E5C67
:10E6D0002E2E5C2E2E5C636F6D706F6E656E747384
:10E6E0005C736F66746465766963655C636F6D6D9A
:10E6F0006F6E5C736F66746465766963655F68618D
:10E700006E646C65725C736F66746465766963656C
:10E710005F68616E646C65722E6300003CE7010007
:10E72000E81F0020D000000066B501000CE80100E1
:10E73000B8200020B80E000076B501000000FFFFF1
:10E7400000000000000000000000000000000000C9
:10E7500000000000000000000000000000000000B9
:10E7600000000000000000000000000000000000A9
:10E77000000000000000000000000000B4250020A0
:10E7800000000000D4250020000000000000000070
:10E790000000000000000000000000000000000079
:10E7A0000000000000000000000000000000000069
:10E7B0000000000000000000000000000000000059
:10E7C0000000000000000000000000000000000049
:10E7D00000000000000000000000000000200040D9
:10E7E0000000000000000000000000000000000029
:10E7F0000000000000000000000000000000000019
:0CE8000000000000000000000024F400F4
:040000050001B0C185
:00000001FF
